C51 COMPILER V9.52.0.0   UART                                                              12/20/2017 16:23:54 PAGE 1   


C51 COMPILER V9.52.0.0, COMPILATION OF MODULE UART
OBJECT MODULE PLACED IN .\OBJ\uart.obj
COMPILER INVOKED BY: D:\keil\C51\BIN\C51.EXE SYSTEM\src\uart.c OMF2 BROWSE INCDIR(.\USER\INC;.\DRIVE\INC;.\SYSTEM\inc) D
                    -EBUG PRINT(.\uart.lst) OBJECT(.\OBJ\uart.obj)

line level    source

   1          /*************************************************
   2          Copyright (C), 2017, xiaohuasheng Tech. Co., Ltd.
   3          <<<<<<< HEAD
   4          File name: time.c                       Author: lvhouyong         
   5          Date: 2017/11/21                        Version: V1.0
   6          Description: 延时相关函数
   7          =======
   8          File name: uart.c                       Author: lvhouyong         
   9          Date: 2017/12/04                                Version: V1.0
  10          Description: 串口初始化及收发接口
  11          >>>>>>> 2fd61aa24603deca022f0e1df145e30ccfc4c807
  12          Others:
  13          History:
  14                  <List>  <Date>  <Author>        <Modification>
  15          *************************************************/
  16          
  17          /************************ 头文件 ************************/
  18          #include <reg52.h>
  19          #include "time.h"
  20          #include "uart.h"
  21          #include "LCD1602.h"
  22          
  23          /************************ 宏定义 ************************/
  24          #define FOSC            12000000        //用12E6，计算的初值差1
  25          
  26          #define TIME1_WORK_MODE         2
  27          #define UART_WORK_MODE          1
  28          
  29          #define SMOD_VAL                        1
  30          
  31          #define SM2_SCON_DISABLE        0
  32          #define SM2_SCON_ENABLE         1               
  33          
  34          #define SMOD_PCON                       7
  35          
  36          #define SM0_SCON                        7
  37          #define SM1_SCON                        6
  38          
  39          /*********************** 全局变量 ***********************/
  40          #include "Macro_Define.h"
  41          #include "time.h"
  42          
  43          /************************ 宏定义 ************************/
  44          #define FOSC                    12000000
  45          #define MODE_TIME0              2
  46          #define MODE_UART               1
  47          
  48          #define SMOD_PCON_VAL   1
  49          
  50          #define SM0_SCON                        7                       //串行控制寄存器
  51          #define SM1_SCON                        6
  52          #define SM2_SCON                        5
  53          #define REN_SCON                        4
  54          #define TB8_SCON                        3
C51 COMPILER V9.52.0.0   UART                                                              12/20/2017 16:23:54 PAGE 2   

  55          #define RB8_SCON                        2
  56          #define TI_SCON                         1
  57          #define RI_SCON                         0
  58          
  59          #define SMOD_PCON                       7
  60          
  61          #define GATE1_TMOD                      7
  62          #define G_T1_TMOD                               6
  63          #define M11_TMOD                                5
  64          #define M01_TMOD                                4
  65          #define GATE0_TMOD                      3
  66          #define G_T0_TMOD                               2
  67          #define M10_TMOD                                1
  68          #define M00_TMOD                                0
  69          
  70          #define TR1_TCON                                6
  71          #define TR0_TCON                                4
  72          
  73          /*********************** 全局变量 ***********************/
  74          
  75          /*********************** 函数声明 ***********************/
  76          
  77          /*********************** 函数定义 ***********************/
  78          
  79          /*************************************************
  80          Function: Uart_Init
  81          Author: lvhouyong         
  82          Date: 2017/12/04                                Version: V1.0
  83          Description: 串口初始化 
  84                          <Type>          <Name>          <Des>
  85          Input:  u32             u32Baud_Rate    串口波特率
  86          Output：void
  87          Return: void
  88          Others: 定时器T1溢出率 = fosc/12*(1/(2^k - 初值))
  89                          波特率 = (2^SMOD)/32*定时器T1溢出率
  90          History:
  91                  <List>  <Date>  <Author>        <Modification>
  92          *************************************************/
  93          void Uart_Init(u32 u32Baud_Rate)
  94          {
  95   1              u16 u16Timer1_Start_Val = 0;
  96   1              Timer_Init_DataType tTimer_Init = {0};
  97   1      
  98   1              #if SMOD_VAL
  99   1              PCON |= 0x01 << SMOD_PCON;              //倍频，波特率增加一倍
 100   1              #else
                      PCON &= ~(0x01 << SMOD_PCON);
                      #endif
 103   1      
 104   1              tTimer_Init.bGate = EXT_IRQ_DISABLE;
 105   1              tTimer_Init.bConter_Timer = TIMER_MODE;
 106   1              tTimer_Init.u8Work_Mode = TIME1_WORK_MODE;
 107   1              tTimer_Init.u8Sart_Val = 0xff - (FOSC * (0x01 << SMOD_VAL) / 12 / u32Baud_Rate / 32) + 1;
 108   1              Timer_Init(TIMER1, &tTimer_Init);
 109   1      
 110   1              Timer_Work_Status_Cmd(TIMER1, ENABLE);
 111   1      
 112   1              SM2 = SM2_SCON_ENABLE;
 113   1      
 114   1              SCON = (SCON & (~(0x03 << SM1_SCON))) | (UART_WORK_MODE << SM1_SCON);
 115   1      
 116   1              Uart_Rcv_Interrupt_Status_Set(ENABLE);          //使能接收中断
C51 COMPILER V9.52.0.0   UART                                                              12/20/2017 16:23:54 PAGE 3   

 117   1      }
 118          
 119          /*************************************************
 120          Function: Uart_Status_Cmd
 121          Author: lvhouyong         
 122          Date: 2017/12/04                                Version: V1.0
 123          Description: 串口接收控制
 124                          <Type>          <Name>          <Des>
 125          Input:  u8                      u8Status        接收控制位
 126          Output：void
 127          Return: void
 128          Others: 
 129          History:
 130                  <List>  <Date>  <Author>        <Modification>
 131          *************************************************/
 132          void Uart_Rcv_Interrupt_Status_Set(u8 u8Status)
 133          {
 134   1              REN = u8Status & 0x01;  
 135   1      }
 136          
 137          /*************************************************
 138          Function: Uart_Char_Send()
 139          Author: lvhouyong         
 140          Date: 2017/12/15                                Version: V1.0
 141          Description: 串口发送字符
 142                          <Type>          <Name>                  <Des>
 143          Input:  char            s8Send_Char             接收控制位
 144          Output：void
 145          Return: void
 146          Others: 发送完毕 TI == 1
 147          History:
 148                  <List>  <Date>  <Author>        <Modification>
 149          *************************************************/
 150          void Uart_Char_Send(char s8Send_Char)
 151          {
 152   1              TI = 0; //清空发送完中断请求标志位  
 153   1          SBUF = s8Send_Char;  //将数据放入寄存器发送  
 154   1          while(TI == 0);//等待发送完毕，发送完毕 TI == 1  
 155   1          TI = 0; //清空发送完中断请求标志位 
 156   1      }
 157          
 158          /*************************************************
 159          Function: Uart_Char_Send()
 160          Author: lvhouyong         
 161          Date: 2017/12/15                                Version: V1.0
 162          Description: 串口接收控制
 163                          <Type>          <Name>                  <Des>
 164          Input:  char            s8Send_Char             接收控制位
 165          Output：void
 166          Return: void
 167          Others: 发送完毕 TI == 1
 168          History:
 169                  <List>  <Date>  <Author>        <Modification>
 170          *************************************************/
 171          char putchar(char c)  
 172          {  
 173   1          Uart_Char_Send(c);  
 174   1          return c;  
 175   1      } 
 176          
 177          /********************************************* END ************************************/

C51 COMPILER V9.52.0.0   UART                                                              12/20/2017 16:23:54 PAGE 4   


MODULE INFORMATION:   STATIC OVERLAYABLE
   CODE SIZE        =    125    ----
   CONSTANT SIZE    =      4    ----
   XDATA SIZE       =   ----    ----
   PDATA SIZE       =   ----    ----
   DATA SIZE        =   ----       8
   IDATA SIZE       =   ----    ----
   BIT SIZE         =   ----    ----
   EDATA SIZE       =   ----    ----
   HDATA SIZE       =   ----    ----
   XDATA CONST SIZE =   ----    ----
   FAR CONST SIZE   =   ----    ----
END OF MODULE INFORMATION.


C51 COMPILATION COMPLETE.  0 WARNING(S),  0 ERROR(S)
